{
  "contractName": "BountyDapp",
  "abi": [
    {
      "constant": true,
      "inputs": [
        {
          "name": "",
          "type": "uint256"
        }
      ],
      "name": "Bounties",
      "outputs": [
        {
          "name": "Title",
          "type": "string"
        },
        {
          "name": "Description",
          "type": "string"
        },
        {
          "name": "Amount",
          "type": "uint256"
        },
        {
          "name": "Poster",
          "type": "address"
        }
      ],
      "payable": false,
      "stateMutability": "view",
      "type": "function"
    },
    {
      "constant": true,
      "inputs": [
        {
          "name": "",
          "type": "uint256"
        }
      ],
      "name": "Submissions",
      "outputs": [
        {
          "name": "Hunter",
          "type": "address"
        },
        {
          "name": "Propose",
          "type": "string"
        },
        {
          "name": "Bounty",
          "type": "uint256"
        },
        {
          "name": "state",
          "type": "uint256"
        }
      ],
      "payable": false,
      "stateMutability": "view",
      "type": "function"
    },
    {
      "inputs": [],
      "payable": false,
      "stateMutability": "nonpayable",
      "type": "constructor"
    },
    {
      "anonymous": false,
      "inputs": [
        {
          "indexed": false,
          "name": "_b",
          "type": "uint256"
        }
      ],
      "name": "BountyCreated",
      "type": "event"
    },
    {
      "constant": false,
      "inputs": [],
      "name": "stopContract",
      "outputs": [],
      "payable": false,
      "stateMutability": "nonpayable",
      "type": "function"
    },
    {
      "constant": false,
      "inputs": [],
      "name": "resumeContract",
      "outputs": [],
      "payable": false,
      "stateMutability": "nonpayable",
      "type": "function"
    },
    {
      "constant": false,
      "inputs": [],
      "name": "close",
      "outputs": [],
      "payable": false,
      "stateMutability": "nonpayable",
      "type": "function"
    },
    {
      "constant": false,
      "inputs": [
        {
          "name": "_title",
          "type": "string"
        },
        {
          "name": "_description",
          "type": "string"
        },
        {
          "name": "_amount",
          "type": "uint256"
        }
      ],
      "name": "NewBounty",
      "outputs": [],
      "payable": false,
      "stateMutability": "nonpayable",
      "type": "function"
    },
    {
      "constant": false,
      "inputs": [
        {
          "name": "_propose",
          "type": "string"
        },
        {
          "name": "_b",
          "type": "uint256"
        }
      ],
      "name": "NewSubmissions",
      "outputs": [],
      "payable": false,
      "stateMutability": "nonpayable",
      "type": "function"
    },
    {
      "constant": false,
      "inputs": [
        {
          "name": "decision",
          "type": "bool"
        },
        {
          "name": "_s",
          "type": "uint256"
        },
        {
          "name": "_b",
          "type": "uint256"
        }
      ],
      "name": "AnswerPropose",
      "outputs": [],
      "payable": true,
      "stateMutability": "payable",
      "type": "function"
    }
  ],
  "bytecode": "0x608060405260008060006101000a81548160ff02191690831515021790555033600360006101000a81548173ffffffffffffffffffffffffffffffffffffffff021916908373ffffffffffffffffffffffffffffffffffffffff16021790555034801561006b57600080fd5b5033600360006101000a81548173ffffffffffffffffffffffffffffffffffffffff021916908373ffffffffffffffffffffffffffffffffffffffff16021790555060006004819055506000600581905550610b5c806100cc6000396000f30060806040526004361061008e576000357c0100000000000000000000000000000000000000000000000000000000900463ffffffff16806312253a6c1461009357806343d726d6146100aa57806355528738146100c1578063744a4298146100f7578063929b6cb5146102435780639cab59151461032a578063c4bc5da51461039d578063cf091c36146103b4575b600080fd5b34801561009f57600080fd5b506100a861046d565b005b3480156100b657600080fd5b506100bf610489565b005b6100f560048036038101908080351515906020019092919080359060200190929190803590602001909291905050506104c4565b005b34801561010357600080fd5b50610122600480360381019080803590602001909291905050506105fe565b6040518080602001806020018581526020018473ffffffffffffffffffffffffffffffffffffffff1673ffffffffffffffffffffffffffffffffffffffff168152602001838103835287818151815260200191508051906020019080838360005b8381101561019e578082015181840152602081019050610183565b50505050905090810190601f1680156101cb5780820380516001836020036101000a031916815260200191505b50838103825286818151815260200191508051906020019080838360005b838110156102045780820151818401526020810190506101e9565b50505050905090810190601f1680156102315780820380516001836020036101000a031916815260200191505b50965050505050505060405180910390f35b34801561024f57600080fd5b5061026e6004803603810190808035906020019092919050505061077e565b604051808573ffffffffffffffffffffffffffffffffffffffff1673ffffffffffffffffffffffffffffffffffffffff16815260200180602001848152602001838152602001828103825285818151815260200191508051906020019080838360005b838110156102ec5780820151818401526020810190506102d1565b50505050905090810190601f1680156103195780820380516001836020036101000a031916815260200191505b509550505050505060405180910390f35b34801561033657600080fd5b5061039b600480360381019080803590602001908201803590602001908080601f016020809104026020016040519081016040528093929190818152602001838380828437820191505050505050919291929080359060200190929190505050610866565b005b3480156103a957600080fd5b506103b261094a565b005b3480156103c057600080fd5b5061046b600480360381019080803590602001908201803590602001908080601f0160208091040260200160405190810160405280939291908181526020018383808284378201915050505050509192919290803590602001908201803590602001908080601f016020809104026020016040519081016040528093929190818152602001838380828437820191505050505050919291929080359060200190929190505050610966565b005b60016000806101000a81548160ff021916908315150217905550565b600360009054906101000a900473ffffffffffffffffffffffffffffffffffffffff1673ffffffffffffffffffffffffffffffffffffffff16ff5b60016000828152602001908152602001600020600201548034101515156104ea57600080fd5b6000809054906101000a900460ff1615151561050557600080fd5b6001151584151514156105d1576002600084815260200190815260200160002060000160009054906101000a900473ffffffffffffffffffffffffffffffffffffffff1673ffffffffffffffffffffffffffffffffffffffff166108fc60016000858152602001908152602001600020600201549081150290604051600060405180830381858888f193505050501580156105a4573d6000803e3d6000fd5b50600160028111156105b257fe5b60026000858152602001908152602001600020600301819055506105f8565b6002808111156105dd57fe5b60026000858152602001908152602001600020600301819055505b50505050565b6001602052806000526040600020600091509050806000018054600181600116156101000203166002900480601f0160208091040260200160405190810160405280929190818152602001828054600181600116156101000203166002900480156106aa5780601f1061067f576101008083540402835291602001916106aa565b820191906000526020600020905b81548152906001019060200180831161068d57829003601f168201915b505050505090806001018054600181600116156101000203166002900480601f0160208091040260200160405190810160405280929190818152602001828054600181600116156101000203166002900480156107485780601f1061071d57610100808354040283529160200191610748565b820191906000526020600020905b81548152906001019060200180831161072b57829003601f168201915b5050505050908060020154908060030160009054906101000a900473ffffffffffffffffffffffffffffffffffffffff16905084565b60026020528060005260406000206000915090508060000160009054906101000a900473ffffffffffffffffffffffffffffffffffffffff1690806001018054600181600116156101000203166002900480601f0160208091040260200160405190810160405280929190818152602001828054600181600116156101000203166002900480156108505780601f1061082557610100808354040283529160200191610850565b820191906000526020600020905b81548152906001019060200180831161083357829003601f168201915b5050505050908060020154908060030154905084565b6080604051908101604052803373ffffffffffffffffffffffffffffffffffffffff168152602001838152602001828152602001600060028111156108a757fe5b81525060026000600554815260200190815260200160002060008201518160000160006101000a81548173ffffffffffffffffffffffffffffffffffffffff021916908373ffffffffffffffffffffffffffffffffffffffff1602179055506020820151816001019080519060200190610922929190610a8b565b5060408201518160020155606082015181600301559050506001600554016005819055505050565b60008060006101000a81548160ff021916908315150217905550565b6080604051908101604052808481526020018381526020018281526020013373ffffffffffffffffffffffffffffffffffffffff1681525060016000600454815260200190815260200160002060008201518160000190805190602001906109cf929190610a8b565b5060208201518160010190805190602001906109ec929190610a8b565b506040820151816002015560608201518160030160006101000a81548173ffffffffffffffffffffffffffffffffffffffff021916908373ffffffffffffffffffffffffffffffffffffffff1602179055509050506001600454016004819055507fd213cfe5d89cdaace45766af58a3bf6d48e2e2408543c764db97840016b6f09b6004546040518082815260200191505060405180910390a1505050565b828054600181600116156101000203166002900490600052602060002090601f016020900481019282601f10610acc57805160ff1916838001178555610afa565b82800160010185558215610afa579182015b82811115610af9578251825591602001919060010190610ade565b5b509050610b079190610b0b565b5090565b610b2d91905b80821115610b29576000816000905550600101610b11565b5090565b905600a165627a7a723058208306eca72276b86d3baee626b295d04e05e5f301c9aff070a411b8eb8c041d1a0029",
  "source": "// solium-disable linebreak-style\r\npragma solidity ^0.4.24;\r\n\r\ncontract BountyDapp {\r\n\r\n    // bool for control the emergency pattern\r\n    bool isStopped = false;\r\n\r\n    // check if emergency stop is activated or not\r\n    modifier stoppedInEmergency {\r\n        require(!isStopped);\r\n        _;\r\n    }\r\n\r\n    // Stop the contract in emergency case to prevent answer submissions that transfer money\r\n    function stopContract() public {\r\n        isStopped = true;\r\n    }\r\n\r\n    // Start normally the contract works\r\n    function resumeContract() public {\r\n        isStopped = false;\r\n    }\r\n \r\n    // Bounties Lists, here I save all the bounties created\r\n    mapping (uint => Bounty) public Bounties;\r\n\r\n    // Submissions Lists, here I save all submissions sent by the hunters\r\n    mapping (uint => Submission) public Submissions;\r\n    \r\n    // set owner\r\n    address owner = msg.sender;\r\n\r\n    // Struct to define each Bounty created\r\n    struct Bounty {\r\n        string Title;\r\n        string Description;\r\n        uint Amount;\r\n        address Poster;\r\n        mapping (uint => address) Hunters;\r\n    }\r\n\r\n    // enum for define the different states that can have the submissions sents\r\n    enum State {Pending, Approved, Decline}\r\n\r\n    // Struct for handle each submission sent\r\n    struct Submission {\r\n        address Hunter;\r\n        string Propose;\r\n        uint Bounty;\r\n        uint state;\r\n    }\r\n\r\n    // This check if the JobPoster has the money to pay\r\n    modifier paidEnough(uint _price) { \r\n        require(msg.value >= _price);\r\n        _;\r\n    }\r\n    \r\n    event BountyCreated(uint _b);\r\n\r\n    // var used to control the index of the bounties\r\n    uint b;\r\n    // var used to control the index of the submissions\r\n    uint s;\r\n\r\n    // initial constructor\r\n    constructor() public {\r\n        owner = msg.sender;\r\n        b = 0;\r\n        s = 0;\r\n    }\r\n\r\n    // This is the mortal design pattern that let destroy the contract and remove it from the blockchain\r\n    function close() public {\r\n        selfdestruct(owner);\r\n    }\r\n\r\n    // this lets create the bounties\r\n    function NewBounty (string _title, string _description, uint _amount) public {\r\n        Bounties[b] = Bounty({Title: _title, Description: _description, Amount: _amount, Poster: msg.sender});\r\n        b = b + 1;\r\n        emit BountyCreated(b);\r\n    }\r\n\r\n    // this lets create the submissions\r\n    function NewSubmissions(string _propose, uint _b) public {\r\n        Submissions[s] = Submission({Hunter: msg.sender,Propose: _propose,Bounty: _b, state: uint(State.Pending)});\r\n        s = s + 1;\r\n    }\r\n\r\n    // this lets answer the submissions, call a modifier to check if the jobposter can pay also check is we are in normal mode or emergency\r\n    function AnswerPropose (bool decision, uint _s, uint _b) public payable\r\n    paidEnough(Bounties[_b].Amount) stoppedInEmergency(){\r\n        if (decision == true) {\r\n            // if submission was approved then pay to the hunter\r\n            Submissions[_s].Hunter.transfer(uint(Bounties[_b].Amount));\r\n            Submissions[_s].state = uint(State.Approved);\r\n        } else {\r\n            // if submission was denied the State of the submission change to Decline\r\n            Submissions[_s].state = uint(State.Decline);\r\n        }\r\n    }\r\n\r\n    /*\r\n    function GetBounties () public returns (Bounty arr) {\r\n        \r\n        return (arr);\r\n    }\r\n    */\r\n}",
  "sourcePath": "C:\\Desarrollo Blockchain\\BountyDapp\\contracts\\BountyDapp.sol",
  "compiler": {
    "name": "solc",
    "version": "0.4.24+commit.e67f0147.Emscripten.clang"
  },
  "schemaVersion": "2.0.1",
  "updatedAt": "2018-08-27T19:05:24.956Z"
}